{
  "_format": "hh-sol-artifact-1",
  "contractName": "VillagePassport",
  "sourceName": "contracts/VillagePassport.sol",
  "abi": [
    {
      "inputs": [
        {
          "internalType": "string",
          "name": "villageName",
          "type": "string"
        },
        {
          "internalType": "string",
          "name": "symbol",
          "type": "string"
        }
      ],
      "stateMutability": "nonpayable",
      "type": "constructor"
    },
    {
      "inputs": [
        {
          "internalType": "address",
          "name": "sender",
          "type": "address"
        },
        {
          "internalType": "uint256",
          "name": "tokenId",
          "type": "uint256"
        },
        {
          "internalType": "address",
          "name": "owner",
          "type": "address"
        }
      ],
      "name": "ERC721IncorrectOwner",
      "type": "error"
    },
    {
      "inputs": [
        {
          "internalType": "address",
          "name": "operator",
          "type": "address"
        },
        {
          "internalType": "uint256",
          "name": "tokenId",
          "type": "uint256"
        }
      ],
      "name": "ERC721InsufficientApproval",
      "type": "error"
    },
    {
      "inputs": [
        {
          "internalType": "address",
          "name": "approver",
          "type": "address"
        }
      ],
      "name": "ERC721InvalidApprover",
      "type": "error"
    },
    {
      "inputs": [
        {
          "internalType": "address",
          "name": "operator",
          "type": "address"
        }
      ],
      "name": "ERC721InvalidOperator",
      "type": "error"
    },
    {
      "inputs": [
        {
          "internalType": "address",
          "name": "owner",
          "type": "address"
        }
      ],
      "name": "ERC721InvalidOwner",
      "type": "error"
    },
    {
      "inputs": [
        {
          "internalType": "address",
          "name": "receiver",
          "type": "address"
        }
      ],
      "name": "ERC721InvalidReceiver",
      "type": "error"
    },
    {
      "inputs": [
        {
          "internalType": "address",
          "name": "sender",
          "type": "address"
        }
      ],
      "name": "ERC721InvalidSender",
      "type": "error"
    },
    {
      "inputs": [
        {
          "internalType": "uint256",
          "name": "tokenId",
          "type": "uint256"
        }
      ],
      "name": "ERC721NonexistentToken",
      "type": "error"
    },
    {
      "inputs": [
        {
          "internalType": "address",
          "name": "owner",
          "type": "address"
        }
      ],
      "name": "OwnableInvalidOwner",
      "type": "error"
    },
    {
      "inputs": [
        {
          "internalType": "address",
          "name": "account",
          "type": "address"
        }
      ],
      "name": "OwnableUnauthorizedAccount",
      "type": "error"
    },
    {
      "anonymous": false,
      "inputs": [
        {
          "indexed": false,
          "internalType": "address",
          "name": "to",
          "type": "address"
        },
        {
          "indexed": false,
          "internalType": "uint256",
          "name": "tokenId",
          "type": "uint256"
        }
      ],
      "name": "AddedPassport",
      "type": "event"
    },
    {
      "anonymous": false,
      "inputs": [
        {
          "indexed": true,
          "internalType": "address",
          "name": "owner",
          "type": "address"
        },
        {
          "indexed": true,
          "internalType": "address",
          "name": "approved",
          "type": "address"
        },
        {
          "indexed": true,
          "internalType": "uint256",
          "name": "tokenId",
          "type": "uint256"
        }
      ],
      "name": "Approval",
      "type": "event"
    },
    {
      "anonymous": false,
      "inputs": [
        {
          "indexed": true,
          "internalType": "address",
          "name": "owner",
          "type": "address"
        },
        {
          "indexed": true,
          "internalType": "address",
          "name": "operator",
          "type": "address"
        },
        {
          "indexed": false,
          "internalType": "bool",
          "name": "approved",
          "type": "bool"
        }
      ],
      "name": "ApprovalForAll",
      "type": "event"
    },
    {
      "anonymous": false,
      "inputs": [
        {
          "indexed": false,
          "internalType": "uint256",
          "name": "_fromTokenId",
          "type": "uint256"
        },
        {
          "indexed": false,
          "internalType": "uint256",
          "name": "_toTokenId",
          "type": "uint256"
        }
      ],
      "name": "BatchMetadataUpdate",
      "type": "event"
    },
    {
      "anonymous": false,
      "inputs": [
        {
          "indexed": false,
          "internalType": "uint256",
          "name": "_tokenId",
          "type": "uint256"
        }
      ],
      "name": "MetadataUpdate",
      "type": "event"
    },
    {
      "anonymous": false,
      "inputs": [
        {
          "indexed": true,
          "internalType": "address",
          "name": "previousOwner",
          "type": "address"
        },
        {
          "indexed": true,
          "internalType": "address",
          "name": "newOwner",
          "type": "address"
        }
      ],
      "name": "OwnershipTransferred",
      "type": "event"
    },
    {
      "anonymous": false,
      "inputs": [
        {
          "indexed": true,
          "internalType": "address",
          "name": "from",
          "type": "address"
        },
        {
          "indexed": true,
          "internalType": "address",
          "name": "to",
          "type": "address"
        },
        {
          "indexed": true,
          "internalType": "uint256",
          "name": "tokenId",
          "type": "uint256"
        }
      ],
      "name": "Transfer",
      "type": "event"
    },
    {
      "inputs": [
        {
          "internalType": "address",
          "name": "targetParson",
          "type": "address"
        },
        {
          "internalType": "string",
          "name": "tokenURI",
          "type": "string"
        }
      ],
      "name": "addPassort",
      "outputs": [
        {
          "internalType": "uint256",
          "name": "",
          "type": "uint256"
        }
      ],
      "stateMutability": "nonpayable",
      "type": "function"
    },
    {
      "inputs": [
        {
          "internalType": "address",
          "name": "to",
          "type": "address"
        },
        {
          "internalType": "uint256",
          "name": "tokenId",
          "type": "uint256"
        }
      ],
      "name": "approve",
      "outputs": [],
      "stateMutability": "nonpayable",
      "type": "function"
    },
    {
      "inputs": [
        {
          "internalType": "address",
          "name": "owner",
          "type": "address"
        }
      ],
      "name": "balanceOf",
      "outputs": [
        {
          "internalType": "uint256",
          "name": "",
          "type": "uint256"
        }
      ],
      "stateMutability": "view",
      "type": "function"
    },
    {
      "inputs": [
        {
          "internalType": "uint256",
          "name": "tokenId",
          "type": "uint256"
        }
      ],
      "name": "getApproved",
      "outputs": [
        {
          "internalType": "address",
          "name": "",
          "type": "address"
        }
      ],
      "stateMutability": "view",
      "type": "function"
    },
    {
      "inputs": [
        {
          "internalType": "address",
          "name": "owner",
          "type": "address"
        },
        {
          "internalType": "address",
          "name": "operator",
          "type": "address"
        }
      ],
      "name": "isApprovedForAll",
      "outputs": [
        {
          "internalType": "bool",
          "name": "",
          "type": "bool"
        }
      ],
      "stateMutability": "view",
      "type": "function"
    },
    {
      "inputs": [],
      "name": "name",
      "outputs": [
        {
          "internalType": "string",
          "name": "",
          "type": "string"
        }
      ],
      "stateMutability": "view",
      "type": "function"
    },
    {
      "inputs": [],
      "name": "owner",
      "outputs": [
        {
          "internalType": "address",
          "name": "",
          "type": "address"
        }
      ],
      "stateMutability": "view",
      "type": "function"
    },
    {
      "inputs": [
        {
          "internalType": "uint256",
          "name": "tokenId",
          "type": "uint256"
        }
      ],
      "name": "ownerOf",
      "outputs": [
        {
          "internalType": "address",
          "name": "",
          "type": "address"
        }
      ],
      "stateMutability": "view",
      "type": "function"
    },
    {
      "inputs": [],
      "name": "renounceOwnership",
      "outputs": [],
      "stateMutability": "nonpayable",
      "type": "function"
    },
    {
      "inputs": [
        {
          "internalType": "address",
          "name": "from",
          "type": "address"
        },
        {
          "internalType": "address",
          "name": "to",
          "type": "address"
        },
        {
          "internalType": "uint256",
          "name": "tokenId",
          "type": "uint256"
        }
      ],
      "name": "safeTransferFrom",
      "outputs": [],
      "stateMutability": "nonpayable",
      "type": "function"
    },
    {
      "inputs": [
        {
          "internalType": "address",
          "name": "from",
          "type": "address"
        },
        {
          "internalType": "address",
          "name": "to",
          "type": "address"
        },
        {
          "internalType": "uint256",
          "name": "tokenId",
          "type": "uint256"
        },
        {
          "internalType": "bytes",
          "name": "data",
          "type": "bytes"
        }
      ],
      "name": "safeTransferFrom",
      "outputs": [],
      "stateMutability": "nonpayable",
      "type": "function"
    },
    {
      "inputs": [
        {
          "internalType": "address",
          "name": "operator",
          "type": "address"
        },
        {
          "internalType": "bool",
          "name": "approved",
          "type": "bool"
        }
      ],
      "name": "setApprovalForAll",
      "outputs": [],
      "stateMutability": "nonpayable",
      "type": "function"
    },
    {
      "inputs": [
        {
          "internalType": "bytes4",
          "name": "interfaceId",
          "type": "bytes4"
        }
      ],
      "name": "supportsInterface",
      "outputs": [
        {
          "internalType": "bool",
          "name": "",
          "type": "bool"
        }
      ],
      "stateMutability": "view",
      "type": "function"
    },
    {
      "inputs": [],
      "name": "symbol",
      "outputs": [
        {
          "internalType": "string",
          "name": "",
          "type": "string"
        }
      ],
      "stateMutability": "view",
      "type": "function"
    },
    {
      "inputs": [
        {
          "internalType": "uint256",
          "name": "tokenId",
          "type": "uint256"
        }
      ],
      "name": "tokenURI",
      "outputs": [
        {
          "internalType": "string",
          "name": "",
          "type": "string"
        }
      ],
      "stateMutability": "view",
      "type": "function"
    },
    {
      "inputs": [
        {
          "internalType": "address",
          "name": "from",
          "type": "address"
        },
        {
          "internalType": "address",
          "name": "to",
          "type": "address"
        },
        {
          "internalType": "uint256",
          "name": "tokenId",
          "type": "uint256"
        }
      ],
      "name": "transferFrom",
      "outputs": [],
      "stateMutability": "nonpayable",
      "type": "function"
    },
    {
      "inputs": [
        {
          "internalType": "address",
          "name": "newOwner",
          "type": "address"
        }
      ],
      "name": "transferOwnership",
      "outputs": [],
      "stateMutability": "nonpayable",
      "type": "function"
    }
  ],
  "bytecode": "0x608060405234801561001057600080fd5b5060405161179438038061179483398101604081905261002f91610198565b338282600061003e838261028a565b50600161004b828261028a565b5050506001600160a01b03811661007c57604051631e4fbdf760e01b81526000600482015260240160405180910390fd5b6100858161008d565b505050610348565b600780546001600160a01b038381166001600160a01b0319831681179093556040519116919082907f8be0079c531659141344cd1fd0a4f28419497f9722a3daafe3b4186f6b6457e090600090a35050565b634e487b7160e01b600052604160045260246000fd5b600082601f83011261010657600080fd5b81516001600160401b0381111561011f5761011f6100df565b604051601f8201601f19908116603f011681016001600160401b038111828210171561014d5761014d6100df565b60405281815283820160200185101561016557600080fd5b60005b8281101561018457602081860181015183830182015201610168565b506000918101602001919091529392505050565b600080604083850312156101ab57600080fd5b82516001600160401b038111156101c157600080fd5b6101cd858286016100f5565b602085015190935090506001600160401b038111156101eb57600080fd5b6101f7858286016100f5565b9150509250929050565b600181811c9082168061021557607f821691505b60208210810361023557634e487b7160e01b600052602260045260246000fd5b50919050565b601f82111561028557806000526020600020601f840160051c810160208510156102625750805b601f840160051c820191505b81811015610282576000815560010161026e565b50505b505050565b81516001600160401b038111156102a3576102a36100df565b6102b7816102b18454610201565b8461023b565b6020601f8211600181146102eb57600083156102d35750848201515b600019600385901b1c1916600184901b178455610282565b600084815260208120601f198516915b8281101561031b57878501518255602094850194600190920191016102fb565b50848210156103395786840151600019600387901b60f8161c191681555b50505050600190811b01905550565b61143d806103576000396000f3fe608060405234801561001057600080fd5b506004361061010b5760003560e01c806370a08231116100a2578063a22cb46511610071578063a22cb4651461021b578063b88d4fde1461022e578063c87b56dd14610241578063e985e9c514610254578063f2fde38b1461026757600080fd5b806370a08231146101e7578063715018a6146101fa5780638da5cb5b1461020257806395d89b411461021357600080fd5b806323b872dd116100de57806323b872dd1461018d57806342842e0e146101a05780636352211e146101b35780636d318363146101c657600080fd5b806301ffc9a71461011057806306fdde0314610138578063081812fc1461014d578063095ea7b314610178575b600080fd5b61012361011e366004610f03565b61027a565b60405190151581526020015b60405180910390f35b6101406102a5565b60405161012f9190610f70565b61016061015b366004610f83565b610337565b6040516001600160a01b03909116815260200161012f565b61018b610186366004610fb8565b610360565b005b61018b61019b366004610fe2565b61036f565b61018b6101ae366004610fe2565b6103ff565b6101606101c1366004610f83565b61041f565b6101d96101d43660046110af565b61042a565b60405190815260200161012f565b6101d96101f5366004611111565b6104a8565b61018b6104f0565b6007546001600160a01b0316610160565b610140610504565b61018b61022936600461112c565b610513565b61018b61023c366004611168565b61051e565b61014061024f366004610f83565b610536565b6101236102623660046111e4565b610647565b61018b610275366004611111565b610675565b60006001600160e01b03198216632483248360e11b148061029f575061029f826106b3565b92915050565b6060600080546102b490611217565b80601f01602080910402602001604051908101604052809291908181526020018280546102e090611217565b801561032d5780601f106103025761010080835404028352916020019161032d565b820191906000526020600020905b81548152906001019060200180831161031057829003601f168201915b5050505050905090565b600061034282610703565b506000828152600460205260409020546001600160a01b031661029f565b61036b82823361073c565b5050565b6001600160a01b03821661039e57604051633250574960e11b8152600060048201526024015b60405180910390fd5b60006103ab838333610749565b9050836001600160a01b0316816001600160a01b0316146103f9576040516364283d7b60e01b81526001600160a01b0380861660048301526024820184905282166044820152606401610395565b50505050565b61041a8383836040518060200160405280600081525061051e565b505050565b600061029f82610703565b6000610434610842565b600880546000918261044583611251565b919050559050610455848261086f565b61045f81846108d4565b604080516001600160a01b0386168152602081018390527fce909fd0e719e685bc101c7c8165b7e5eea072564c7e27579b284b3d7941e658910160405180910390a19392505050565b60006001600160a01b0382166104d4576040516322718ad960e21b815260006004820152602401610395565b506001600160a01b031660009081526003602052604090205490565b6104f8610842565b6105026000610924565b565b6060600180546102b490611217565b61036b338383610976565b61052984848461036f565b6103f93385858585610a15565b606061054182610703565b506000828152600660205260408120805461055b90611217565b80601f016020809104026020016040519081016040528092919081815260200182805461058790611217565b80156105d45780601f106105a9576101008083540402835291602001916105d4565b820191906000526020600020905b8154815290600101906020018083116105b757829003601f168201915b5050505050905060006105f260408051602081019091526000815290565b90508051600003610604575092915050565b81511561063657808260405160200161061e929190611278565b60405160208183030381529060405292505050919050565b61063f84610b40565b949350505050565b6001600160a01b03918216600090815260056020908152604080832093909416825291909152205460ff1690565b61067d610842565b6001600160a01b0381166106a757604051631e4fbdf760e01b815260006004820152602401610395565b6106b081610924565b50565b60006001600160e01b031982166380ac58cd60e01b14806106e457506001600160e01b03198216635b5e139f60e01b145b8061029f57506301ffc9a760e01b6001600160e01b031983161461029f565b6000818152600260205260408120546001600160a01b03168061029f57604051637e27328960e01b815260048101849052602401610395565b61041a8383836001610bb5565b6000828152600260205260408120546001600160a01b039081169083161561077657610776818486610cbb565b6001600160a01b038116156107b457610793600085600080610bb5565b6001600160a01b038116600090815260036020526040902080546000190190555b6001600160a01b038516156107e3576001600160a01b0385166000908152600360205260409020805460010190555b60008481526002602052604080822080546001600160a01b0319166001600160a01b0389811691821790925591518793918516917fddf252ad1be2c89b69c2b068fc378daa952ba7f163c4a11628f55a4df523b3ef91a4949350505050565b6007546001600160a01b031633146105025760405163118cdaa760e01b8152336004820152602401610395565b6001600160a01b03821661089957604051633250574960e11b815260006004820152602401610395565b60006108a783836000610749565b90506001600160a01b0381161561041a576040516339e3563760e11b815260006004820152602401610395565b60008281526006602052604090206108ec82826112ee565b506040518281527ff8e1a15aba9398e019f0b49df1a4fde98ee17ae345cb5f6b5e2c27f5033e8ce79060200160405180910390a15050565b600780546001600160a01b038381166001600160a01b0319831681179093556040519116919082907f8be0079c531659141344cd1fd0a4f28419497f9722a3daafe3b4186f6b6457e090600090a35050565b6001600160a01b0382166109a857604051630b61174360e31b81526001600160a01b0383166004820152602401610395565b6001600160a01b03838116600081815260056020908152604080832094871680845294825291829020805460ff191686151590811790915591519182527f17307eab39ab6107e8899845ad3d59bd9653f200f220920489ca2b5937696c31910160405180910390a3505050565b6001600160a01b0383163b15610b3957604051630a85bd0160e11b81526001600160a01b0384169063150b7a0290610a579088908890879087906004016113ad565b6020604051808303816000875af1925050508015610a92575060408051601f3d908101601f19168201909252610a8f918101906113ea565b60015b610afb573d808015610ac0576040519150601f19603f3d011682016040523d82523d6000602084013e610ac5565b606091505b508051600003610af357604051633250574960e11b81526001600160a01b0385166004820152602401610395565b805181602001fd5b6001600160e01b03198116630a85bd0160e11b14610b3757604051633250574960e11b81526001600160a01b0385166004820152602401610395565b505b5050505050565b6060610b4b82610703565b506000610b6360408051602081019091526000815290565b90506000815111610b835760405180602001604052806000815250610bae565b80610b8d84610d1f565b604051602001610b9e929190611278565b6040516020818303038152906040525b9392505050565b8080610bc957506001600160a01b03821615155b15610c8b576000610bd984610703565b90506001600160a01b03831615801590610c055750826001600160a01b0316816001600160a01b031614155b8015610c185750610c168184610647565b155b15610c415760405163a9fbf51f60e01b81526001600160a01b0384166004820152602401610395565b8115610c895783856001600160a01b0316826001600160a01b03167f8c5be1e5ebec7d5bd14f71427d1e84f3dd0314c0f7b2291e5b200ac8c7c3b92560405160405180910390a45b505b5050600090815260046020526040902080546001600160a01b0319166001600160a01b0392909216919091179055565b610cc6838383610db2565b61041a576001600160a01b038316610cf457604051637e27328960e01b815260048101829052602401610395565b60405163177e802f60e01b81526001600160a01b038316600482015260248101829052604401610395565b60606000610d2c83610e15565b600101905060008167ffffffffffffffff811115610d4c57610d4c61101f565b6040519080825280601f01601f191660200182016040528015610d76576020820181803683370190505b5090508181016020015b600019016f181899199a1a9b1b9c1cb0b131b232b360811b600a86061a8153600a8504945084610d8057509392505050565b60006001600160a01b0383161580159061063f5750826001600160a01b0316846001600160a01b03161480610dec5750610dec8484610647565b8061063f5750506000908152600460205260409020546001600160a01b03908116911614919050565b60008072184f03e93ff9f4daa797ed6e38ed64bf6a1f0160401b8310610e545772184f03e93ff9f4daa797ed6e38ed64bf6a1f0160401b830492506040015b6d04ee2d6d415b85acef81000000008310610e80576d04ee2d6d415b85acef8100000000830492506020015b662386f26fc100008310610e9e57662386f26fc10000830492506010015b6305f5e1008310610eb6576305f5e100830492506008015b6127108310610eca57612710830492506004015b60648310610edc576064830492506002015b600a831061029f5760010192915050565b6001600160e01b0319811681146106b057600080fd5b600060208284031215610f1557600080fd5b8135610bae81610eed565b60005b83811015610f3b578181015183820152602001610f23565b50506000910152565b60008151808452610f5c816020860160208601610f20565b601f01601f19169290920160200192915050565b602081526000610bae6020830184610f44565b600060208284031215610f9557600080fd5b5035919050565b80356001600160a01b0381168114610fb357600080fd5b919050565b60008060408385031215610fcb57600080fd5b610fd483610f9c565b946020939093013593505050565b600080600060608486031215610ff757600080fd5b61100084610f9c565b925061100e60208501610f9c565b929592945050506040919091013590565b634e487b7160e01b600052604160045260246000fd5b60008067ffffffffffffffff8411156110505761105061101f565b50604051601f19601f85018116603f0116810181811067ffffffffffffffff8211171561107f5761107f61101f565b60405283815290508082840185101561109757600080fd5b83836020830137600060208583010152509392505050565b600080604083850312156110c257600080fd5b6110cb83610f9c565b9150602083013567ffffffffffffffff8111156110e757600080fd5b8301601f810185136110f857600080fd5b61110785823560208401611035565b9150509250929050565b60006020828403121561112357600080fd5b610bae82610f9c565b6000806040838503121561113f57600080fd5b61114883610f9c565b91506020830135801515811461115d57600080fd5b809150509250929050565b6000806000806080858703121561117e57600080fd5b61118785610f9c565b935061119560208601610f9c565b925060408501359150606085013567ffffffffffffffff8111156111b857600080fd5b8501601f810187136111c957600080fd5b6111d887823560208401611035565b91505092959194509250565b600080604083850312156111f757600080fd5b61120083610f9c565b915061120e60208401610f9c565b90509250929050565b600181811c9082168061122b57607f821691505b60208210810361124b57634e487b7160e01b600052602260045260246000fd5b50919050565b60006001820161127157634e487b7160e01b600052601160045260246000fd5b5060010190565b6000835161128a818460208801610f20565b83519083019061129e818360208801610f20565b01949350505050565b601f82111561041a57806000526020600020601f840160051c810160208510156112ce5750805b601f840160051c820191505b81811015610b3957600081556001016112da565b815167ffffffffffffffff8111156113085761130861101f565b61131c816113168454611217565b846112a7565b6020601f82116001811461135057600083156113385750848201515b600019600385901b1c1916600184901b178455610b39565b600084815260208120601f198516915b828110156113805787850151825560209485019460019092019101611360565b508482101561139e5786840151600019600387901b60f8161c191681555b50505050600190811b01905550565b6001600160a01b03858116825284166020820152604081018390526080606082018190526000906113e090830184610f44565b9695505050505050565b6000602082840312156113fc57600080fd5b8151610bae81610eed56fea2646970667358221220f102ea0450567fe6886a2cddd6ba2046368aa64a22a14b36cddfe6f43d4880ad64736f6c634300081c0033",
  "linkReferences": {},
  "deployedLinkReferences": {}
}