{
  "_format": "hh-sol-artifact-1",
  "contractName": "VillagePassport",
  "sourceName": "contracts/VillagePassport.sol",
  "abi": [
    {
      "inputs": [
        {
          "internalType": "string",
          "name": "villageName",
          "type": "string"
        },
        {
          "internalType": "string",
          "name": "symbol",
          "type": "string"
        }
      ],
      "stateMutability": "nonpayable",
      "type": "constructor"
    },
    {
      "inputs": [
        {
          "internalType": "address",
          "name": "sender",
          "type": "address"
        },
        {
          "internalType": "uint256",
          "name": "tokenId",
          "type": "uint256"
        },
        {
          "internalType": "address",
          "name": "owner",
          "type": "address"
        }
      ],
      "name": "ERC721IncorrectOwner",
      "type": "error"
    },
    {
      "inputs": [
        {
          "internalType": "address",
          "name": "operator",
          "type": "address"
        },
        {
          "internalType": "uint256",
          "name": "tokenId",
          "type": "uint256"
        }
      ],
      "name": "ERC721InsufficientApproval",
      "type": "error"
    },
    {
      "inputs": [
        {
          "internalType": "address",
          "name": "approver",
          "type": "address"
        }
      ],
      "name": "ERC721InvalidApprover",
      "type": "error"
    },
    {
      "inputs": [
        {
          "internalType": "address",
          "name": "operator",
          "type": "address"
        }
      ],
      "name": "ERC721InvalidOperator",
      "type": "error"
    },
    {
      "inputs": [
        {
          "internalType": "address",
          "name": "owner",
          "type": "address"
        }
      ],
      "name": "ERC721InvalidOwner",
      "type": "error"
    },
    {
      "inputs": [
        {
          "internalType": "address",
          "name": "receiver",
          "type": "address"
        }
      ],
      "name": "ERC721InvalidReceiver",
      "type": "error"
    },
    {
      "inputs": [
        {
          "internalType": "address",
          "name": "sender",
          "type": "address"
        }
      ],
      "name": "ERC721InvalidSender",
      "type": "error"
    },
    {
      "inputs": [
        {
          "internalType": "uint256",
          "name": "tokenId",
          "type": "uint256"
        }
      ],
      "name": "ERC721NonexistentToken",
      "type": "error"
    },
    {
      "inputs": [
        {
          "internalType": "address",
          "name": "owner",
          "type": "address"
        }
      ],
      "name": "OwnableInvalidOwner",
      "type": "error"
    },
    {
      "inputs": [
        {
          "internalType": "address",
          "name": "account",
          "type": "address"
        }
      ],
      "name": "OwnableUnauthorizedAccount",
      "type": "error"
    },
    {
      "anonymous": false,
      "inputs": [
        {
          "indexed": false,
          "internalType": "address",
          "name": "to",
          "type": "address"
        },
        {
          "indexed": false,
          "internalType": "uint256",
          "name": "tokenId",
          "type": "uint256"
        }
      ],
      "name": "AddedPassport",
      "type": "event"
    },
    {
      "anonymous": false,
      "inputs": [
        {
          "indexed": false,
          "internalType": "uint256",
          "name": "ticketId",
          "type": "uint256"
        },
        {
          "indexed": false,
          "internalType": "string",
          "name": "ticketName",
          "type": "string"
        },
        {
          "indexed": false,
          "internalType": "address",
          "name": "addressOfErc721",
          "type": "address"
        }
      ],
      "name": "AddedTicket",
      "type": "event"
    },
    {
      "anonymous": false,
      "inputs": [
        {
          "indexed": true,
          "internalType": "address",
          "name": "owner",
          "type": "address"
        },
        {
          "indexed": true,
          "internalType": "address",
          "name": "approved",
          "type": "address"
        },
        {
          "indexed": true,
          "internalType": "uint256",
          "name": "tokenId",
          "type": "uint256"
        }
      ],
      "name": "Approval",
      "type": "event"
    },
    {
      "anonymous": false,
      "inputs": [
        {
          "indexed": true,
          "internalType": "address",
          "name": "owner",
          "type": "address"
        },
        {
          "indexed": true,
          "internalType": "address",
          "name": "operator",
          "type": "address"
        },
        {
          "indexed": false,
          "internalType": "bool",
          "name": "approved",
          "type": "bool"
        }
      ],
      "name": "ApprovalForAll",
      "type": "event"
    },
    {
      "anonymous": false,
      "inputs": [
        {
          "indexed": false,
          "internalType": "uint256",
          "name": "_fromTokenId",
          "type": "uint256"
        },
        {
          "indexed": false,
          "internalType": "uint256",
          "name": "_toTokenId",
          "type": "uint256"
        }
      ],
      "name": "BatchMetadataUpdate",
      "type": "event"
    },
    {
      "anonymous": false,
      "inputs": [
        {
          "indexed": false,
          "internalType": "uint256",
          "name": "_tokenId",
          "type": "uint256"
        }
      ],
      "name": "MetadataUpdate",
      "type": "event"
    },
    {
      "anonymous": false,
      "inputs": [
        {
          "indexed": true,
          "internalType": "address",
          "name": "previousOwner",
          "type": "address"
        },
        {
          "indexed": true,
          "internalType": "address",
          "name": "newOwner",
          "type": "address"
        }
      ],
      "name": "OwnershipTransferred",
      "type": "event"
    },
    {
      "anonymous": false,
      "inputs": [
        {
          "indexed": true,
          "internalType": "address",
          "name": "from",
          "type": "address"
        },
        {
          "indexed": true,
          "internalType": "address",
          "name": "to",
          "type": "address"
        },
        {
          "indexed": true,
          "internalType": "uint256",
          "name": "tokenId",
          "type": "uint256"
        }
      ],
      "name": "Transfer",
      "type": "event"
    },
    {
      "inputs": [
        {
          "internalType": "address",
          "name": "targetParson",
          "type": "address"
        },
        {
          "internalType": "string",
          "name": "tokenURI",
          "type": "string"
        }
      ],
      "name": "addPassort",
      "outputs": [
        {
          "internalType": "uint256",
          "name": "",
          "type": "uint256"
        }
      ],
      "stateMutability": "nonpayable",
      "type": "function"
    },
    {
      "inputs": [
        {
          "internalType": "string",
          "name": "ticketName",
          "type": "string"
        },
        {
          "internalType": "address",
          "name": "addressOfErc721",
          "type": "address"
        }
      ],
      "name": "addTicket",
      "outputs": [],
      "stateMutability": "nonpayable",
      "type": "function"
    },
    {
      "inputs": [
        {
          "internalType": "address",
          "name": "to",
          "type": "address"
        },
        {
          "internalType": "uint256",
          "name": "tokenId",
          "type": "uint256"
        }
      ],
      "name": "approve",
      "outputs": [],
      "stateMutability": "nonpayable",
      "type": "function"
    },
    {
      "inputs": [
        {
          "internalType": "address",
          "name": "owner",
          "type": "address"
        }
      ],
      "name": "balanceOf",
      "outputs": [
        {
          "internalType": "uint256",
          "name": "",
          "type": "uint256"
        }
      ],
      "stateMutability": "view",
      "type": "function"
    },
    {
      "inputs": [
        {
          "internalType": "uint256",
          "name": "tokenId",
          "type": "uint256"
        },
        {
          "internalType": "uint256",
          "name": "ticketId",
          "type": "uint256"
        },
        {
          "internalType": "uint256",
          "name": "ticketTokenId",
          "type": "uint256"
        }
      ],
      "name": "checkTicketStatus",
      "outputs": [
        {
          "internalType": "string",
          "name": "",
          "type": "string"
        }
      ],
      "stateMutability": "view",
      "type": "function"
    },
    {
      "inputs": [],
      "name": "getAlltickets",
      "outputs": [
        {
          "components": [
            {
              "internalType": "string",
              "name": "name",
              "type": "string"
            },
            {
              "internalType": "address",
              "name": "addressOfErc721",
              "type": "address"
            }
          ],
          "internalType": "struct VillagePassport.Ticket[]",
          "name": "",
          "type": "tuple[]"
        }
      ],
      "stateMutability": "view",
      "type": "function"
    },
    {
      "inputs": [
        {
          "internalType": "uint256",
          "name": "tokenId",
          "type": "uint256"
        }
      ],
      "name": "getApproved",
      "outputs": [
        {
          "internalType": "address",
          "name": "",
          "type": "address"
        }
      ],
      "stateMutability": "view",
      "type": "function"
    },
    {
      "inputs": [
        {
          "internalType": "address",
          "name": "owner",
          "type": "address"
        },
        {
          "internalType": "address",
          "name": "operator",
          "type": "address"
        }
      ],
      "name": "isApprovedForAll",
      "outputs": [
        {
          "internalType": "bool",
          "name": "",
          "type": "bool"
        }
      ],
      "stateMutability": "view",
      "type": "function"
    },
    {
      "inputs": [],
      "name": "name",
      "outputs": [
        {
          "internalType": "string",
          "name": "",
          "type": "string"
        }
      ],
      "stateMutability": "view",
      "type": "function"
    },
    {
      "inputs": [],
      "name": "owner",
      "outputs": [
        {
          "internalType": "address",
          "name": "",
          "type": "address"
        }
      ],
      "stateMutability": "view",
      "type": "function"
    },
    {
      "inputs": [
        {
          "internalType": "uint256",
          "name": "tokenId",
          "type": "uint256"
        }
      ],
      "name": "ownerOf",
      "outputs": [
        {
          "internalType": "address",
          "name": "",
          "type": "address"
        }
      ],
      "stateMutability": "view",
      "type": "function"
    },
    {
      "inputs": [],
      "name": "renounceOwnership",
      "outputs": [],
      "stateMutability": "nonpayable",
      "type": "function"
    },
    {
      "inputs": [
        {
          "internalType": "address",
          "name": "from",
          "type": "address"
        },
        {
          "internalType": "address",
          "name": "to",
          "type": "address"
        },
        {
          "internalType": "uint256",
          "name": "tokenId",
          "type": "uint256"
        }
      ],
      "name": "safeTransferFrom",
      "outputs": [],
      "stateMutability": "nonpayable",
      "type": "function"
    },
    {
      "inputs": [
        {
          "internalType": "address",
          "name": "from",
          "type": "address"
        },
        {
          "internalType": "address",
          "name": "to",
          "type": "address"
        },
        {
          "internalType": "uint256",
          "name": "tokenId",
          "type": "uint256"
        },
        {
          "internalType": "bytes",
          "name": "data",
          "type": "bytes"
        }
      ],
      "name": "safeTransferFrom",
      "outputs": [],
      "stateMutability": "nonpayable",
      "type": "function"
    },
    {
      "inputs": [
        {
          "internalType": "address",
          "name": "operator",
          "type": "address"
        },
        {
          "internalType": "bool",
          "name": "approved",
          "type": "bool"
        }
      ],
      "name": "setApprovalForAll",
      "outputs": [],
      "stateMutability": "nonpayable",
      "type": "function"
    },
    {
      "inputs": [
        {
          "internalType": "bytes4",
          "name": "interfaceId",
          "type": "bytes4"
        }
      ],
      "name": "supportsInterface",
      "outputs": [
        {
          "internalType": "bool",
          "name": "",
          "type": "bool"
        }
      ],
      "stateMutability": "view",
      "type": "function"
    },
    {
      "inputs": [],
      "name": "symbol",
      "outputs": [
        {
          "internalType": "string",
          "name": "",
          "type": "string"
        }
      ],
      "stateMutability": "view",
      "type": "function"
    },
    {
      "inputs": [
        {
          "internalType": "uint256",
          "name": "tokenId",
          "type": "uint256"
        }
      ],
      "name": "tokenURI",
      "outputs": [
        {
          "internalType": "string",
          "name": "",
          "type": "string"
        }
      ],
      "stateMutability": "view",
      "type": "function"
    },
    {
      "inputs": [
        {
          "internalType": "address",
          "name": "from",
          "type": "address"
        },
        {
          "internalType": "address",
          "name": "to",
          "type": "address"
        },
        {
          "internalType": "uint256",
          "name": "tokenId",
          "type": "uint256"
        }
      ],
      "name": "transferFrom",
      "outputs": [],
      "stateMutability": "nonpayable",
      "type": "function"
    },
    {
      "inputs": [
        {
          "internalType": "address",
          "name": "newOwner",
          "type": "address"
        }
      ],
      "name": "transferOwnership",
      "outputs": [],
      "stateMutability": "nonpayable",
      "type": "function"
    }
  ],
  "bytecode": "0x608060405234801561001057600080fd5b50604051611d97380380611d9783398101604081905261002f91610198565b338282600061003e838261028a565b50600161004b828261028a565b5050506001600160a01b03811661007c57604051631e4fbdf760e01b81526000600482015260240160405180910390fd5b6100858161008d565b505050610348565b600780546001600160a01b038381166001600160a01b0319831681179093556040519116919082907f8be0079c531659141344cd1fd0a4f28419497f9722a3daafe3b4186f6b6457e090600090a35050565b634e487b7160e01b600052604160045260246000fd5b600082601f83011261010657600080fd5b81516001600160401b0381111561011f5761011f6100df565b604051601f8201601f19908116603f011681016001600160401b038111828210171561014d5761014d6100df565b60405281815283820160200185101561016557600080fd5b60005b8281101561018457602081860181015183830182015201610168565b506000918101602001919091529392505050565b600080604083850312156101ab57600080fd5b82516001600160401b038111156101c157600080fd5b6101cd858286016100f5565b602085015190935090506001600160401b038111156101eb57600080fd5b6101f7858286016100f5565b9150509250929050565b600181811c9082168061021557607f821691505b60208210810361023557634e487b7160e01b600052602260045260246000fd5b50919050565b601f82111561028557806000526020600020601f840160051c810160208510156102625750805b601f840160051c820191505b81811015610282576000815560010161026e565b50505b505050565b81516001600160401b038111156102a3576102a36100df565b6102b7816102b18454610201565b8461023b565b6020601f8211600181146102eb57600083156102d35750848201515b600019600385901b1c1916600184901b178455610282565b600084815260208120601f198516915b8281101561031b57878501518255602094850194600190920191016102fb565b50848210156103395786840151600019600387901b60f8161c191681555b50505050600190811b01905550565b611a40806103576000396000f3fe608060405234801561001057600080fd5b506004361061012c5760003560e01c806370a08231116100ad578063b88d4fde11610071578063b88d4fde14610277578063b9ccc95a1461028a578063c87b56dd1461029d578063e985e9c5146102b0578063f2fde38b146102c357600080fd5b806370a0823114610230578063715018a6146102435780638da5cb5b1461024b57806395d89b411461025c578063a22cb4651461026457600080fd5b806342842e0e116100f457806342842e0e146101c157806347c42b45146101d45780636352211e146101e757806369d1eda1146101fa5780636d3183631461020f57600080fd5b806301ffc9a71461013157806306fdde0314610159578063081812fc1461016e578063095ea7b31461019957806323b872dd146101ae575b600080fd5b61014461013f36600461133c565b6102d6565b60405190151581526020015b60405180910390f35b610161610301565b60405161015091906113a9565b61018161017c3660046113bc565b610393565b6040516001600160a01b039091168152602001610150565b6101ac6101a73660046113f1565b6103bc565b005b6101ac6101bc36600461141b565b6103cb565b6101ac6101cf36600461141b565b61045b565b6101ac6101e2366004611525565b61047b565b6101816101f53660046113bc565b610543565b61020261054e565b6040516101509190611573565b61022261021d3660046115f5565b6106ae565b604051908152602001610150565b61022261023e366004611643565b61072c565b6101ac610774565b6007546001600160a01b0316610181565b610161610788565b6101ac61027236600461165e565b610797565b6101ac61028536600461169a565b6107a2565b610161610298366004611716565b6107ba565b6101616102ab3660046113bc565b61096f565b6101446102be366004611742565b610a80565b6101ac6102d1366004611643565b610aae565b60006001600160e01b03198216632483248360e11b14806102fb57506102fb82610aec565b92915050565b6060600080546103109061176c565b80601f016020809104026020016040519081016040528092919081815260200182805461033c9061176c565b80156103895780601f1061035e57610100808354040283529160200191610389565b820191906000526020600020905b81548152906001019060200180831161036c57829003601f168201915b5050505050905090565b600061039e82610b3c565b506000828152600460205260409020546001600160a01b03166102fb565b6103c7828233610b75565b5050565b6001600160a01b0382166103fa57604051633250574960e11b8152600060048201526024015b60405180910390fd5b6000610407838333610b82565b9050836001600160a01b0316816001600160a01b031614610455576040516364283d7b60e01b81526001600160a01b03808616600483015260248201849052821660448201526064016103f1565b50505050565b610476838383604051806020016040528060008152506107a2565b505050565b610483610c7b565b6009805460009182610494836117a0565b909155506040805180820182528581526001600160a01b0385166020808301919091526000848152600a909152919091208151929350909181906104d8908261180e565b5060209190910151600190910180546001600160a01b0319166001600160a01b039092169190911790556040517f4c807e159bf294b2b7247c8456803f3abeac905a00cd35a449610d3d1f47028d90610536908390869086906118cd565b60405180910390a1505050565b60006102fb82610b3c565b6060600060095467ffffffffffffffff81111561056d5761056d611458565b6040519080825280602002602001820160405280156105b357816020015b60408051808201909152606081526000602082015281526020019060019003908161058b5790505b50905060005b6009548110156106a8576000818152600a60205260409081902081518083019092528054829082906105ea9061176c565b80601f01602080910402602001604051908101604052809291908181526020018280546106169061176c565b80156106635780601f1061063857610100808354040283529160200191610663565b820191906000526020600020905b81548152906001019060200180831161064657829003601f168201915b5050509183525050600191909101546001600160a01b03166020909101528251839083908110610695576106956118fe565b60209081029190910101526001016105b9565b50919050565b60006106b8610c7b565b60088054600091826106c9836117a0565b9190505590506106d98482610ca8565b6106e38184610d0d565b604080516001600160a01b0386168152602081018390527fce909fd0e719e685bc101c7c8165b7e5eea072564c7e27579b284b3d7941e658910160405180910390a19392505050565b60006001600160a01b038216610758576040516322718ad960e21b8152600060048201526024016103f1565b506001600160a01b031660009081526003602052604090205490565b61077c610c7b565b6107866000610d5d565b565b6060600180546103109061176c565b6103c7338383610daf565b6107ad8484846103cb565b6104553385858585610e4e565b6060336107c685610543565b6001600160a01b0316146108385760405162461bcd60e51b815260206004820152603360248201527f53686f756c64206265206f776e657228416e617461206861206465676974616c60448201527210353abab6b4b7103232903430903730b4949760691b60648201526084016103f1565b6000838152600a6020526040808220815180830190925280548290829061085e9061176c565b80601f016020809104026020016040519081016040528092919081815260200182805461088a9061176c565b80156108d75780601f106108ac576101008083540402835291602001916108d7565b820191906000526020600020905b8154815290600101906020018083116108ba57829003601f168201915b5050509183525050600191909101546001600160a01b0390811660209283015290820151604051633ee1ddd360e21b815260048101879052929350919082169063fb87774c90602401600060405180830381865afa15801561093d573d6000803e3d6000fd5b505050506040513d6000823e601f3d908101601f191682016040526109659190810190611914565b9695505050505050565b606061097a82610b3c565b50600082815260066020526040812080546109949061176c565b80601f01602080910402602001604051908101604052809291908181526020018280546109c09061176c565b8015610a0d5780601f106109e257610100808354040283529160200191610a0d565b820191906000526020600020905b8154815290600101906020018083116109f057829003601f168201915b505050505090506000610a2b60408051602081019091526000815290565b90508051600003610a3d575092915050565b815115610a6f578082604051602001610a5792919061198b565b60405160208183030381529060405292505050919050565b610a7884610f79565b949350505050565b6001600160a01b03918216600090815260056020908152604080832093909416825291909152205460ff1690565b610ab6610c7b565b6001600160a01b038116610ae057604051631e4fbdf760e01b8152600060048201526024016103f1565b610ae981610d5d565b50565b60006001600160e01b031982166380ac58cd60e01b1480610b1d57506001600160e01b03198216635b5e139f60e01b145b806102fb57506301ffc9a760e01b6001600160e01b03198316146102fb565b6000818152600260205260408120546001600160a01b0316806102fb57604051637e27328960e01b8152600481018490526024016103f1565b6104768383836001610fee565b6000828152600260205260408120546001600160a01b0390811690831615610baf57610baf8184866110f4565b6001600160a01b03811615610bed57610bcc600085600080610fee565b6001600160a01b038116600090815260036020526040902080546000190190555b6001600160a01b03851615610c1c576001600160a01b0385166000908152600360205260409020805460010190555b60008481526002602052604080822080546001600160a01b0319166001600160a01b0389811691821790925591518793918516917fddf252ad1be2c89b69c2b068fc378daa952ba7f163c4a11628f55a4df523b3ef91a4949350505050565b6007546001600160a01b031633146107865760405163118cdaa760e01b81523360048201526024016103f1565b6001600160a01b038216610cd257604051633250574960e11b8152600060048201526024016103f1565b6000610ce083836000610b82565b90506001600160a01b03811615610476576040516339e3563760e11b8152600060048201526024016103f1565b6000828152600660205260409020610d25828261180e565b506040518281527ff8e1a15aba9398e019f0b49df1a4fde98ee17ae345cb5f6b5e2c27f5033e8ce79060200160405180910390a15050565b600780546001600160a01b038381166001600160a01b0319831681179093556040519116919082907f8be0079c531659141344cd1fd0a4f28419497f9722a3daafe3b4186f6b6457e090600090a35050565b6001600160a01b038216610de157604051630b61174360e31b81526001600160a01b03831660048201526024016103f1565b6001600160a01b03838116600081815260056020908152604080832094871680845294825291829020805460ff191686151590811790915591519182527f17307eab39ab6107e8899845ad3d59bd9653f200f220920489ca2b5937696c31910160405180910390a3505050565b6001600160a01b0383163b15610f7257604051630a85bd0160e11b81526001600160a01b0384169063150b7a0290610e909088908890879087906004016119ba565b6020604051808303816000875af1925050508015610ecb575060408051601f3d908101601f19168201909252610ec8918101906119ed565b60015b610f34573d808015610ef9576040519150601f19603f3d011682016040523d82523d6000602084013e610efe565b606091505b508051600003610f2c57604051633250574960e11b81526001600160a01b03851660048201526024016103f1565b805181602001fd5b6001600160e01b03198116630a85bd0160e11b14610f7057604051633250574960e11b81526001600160a01b03851660048201526024016103f1565b505b5050505050565b6060610f8482610b3c565b506000610f9c60408051602081019091526000815290565b90506000815111610fbc5760405180602001604052806000815250610fe7565b80610fc684611158565b604051602001610fd792919061198b565b6040516020818303038152906040525b9392505050565b808061100257506001600160a01b03821615155b156110c457600061101284610b3c565b90506001600160a01b0383161580159061103e5750826001600160a01b0316816001600160a01b031614155b8015611051575061104f8184610a80565b155b1561107a5760405163a9fbf51f60e01b81526001600160a01b03841660048201526024016103f1565b81156110c25783856001600160a01b0316826001600160a01b03167f8c5be1e5ebec7d5bd14f71427d1e84f3dd0314c0f7b2291e5b200ac8c7c3b92560405160405180910390a45b505b5050600090815260046020526040902080546001600160a01b0319166001600160a01b0392909216919091179055565b6110ff8383836111eb565b610476576001600160a01b03831661112d57604051637e27328960e01b8152600481018290526024016103f1565b60405163177e802f60e01b81526001600160a01b0383166004820152602481018290526044016103f1565b606060006111658361124e565b600101905060008167ffffffffffffffff81111561118557611185611458565b6040519080825280601f01601f1916602001820160405280156111af576020820181803683370190505b5090508181016020015b600019016f181899199a1a9b1b9c1cb0b131b232b360811b600a86061a8153600a85049450846111b957509392505050565b60006001600160a01b03831615801590610a785750826001600160a01b0316846001600160a01b0316148061122557506112258484610a80565b80610a785750506000908152600460205260409020546001600160a01b03908116911614919050565b60008072184f03e93ff9f4daa797ed6e38ed64bf6a1f0160401b831061128d5772184f03e93ff9f4daa797ed6e38ed64bf6a1f0160401b830492506040015b6d04ee2d6d415b85acef810000000083106112b9576d04ee2d6d415b85acef8100000000830492506020015b662386f26fc1000083106112d757662386f26fc10000830492506010015b6305f5e10083106112ef576305f5e100830492506008015b612710831061130357612710830492506004015b60648310611315576064830492506002015b600a83106102fb5760010192915050565b6001600160e01b031981168114610ae957600080fd5b60006020828403121561134e57600080fd5b8135610fe781611326565b60005b8381101561137457818101518382015260200161135c565b50506000910152565b60008151808452611395816020860160208601611359565b601f01601f19169290920160200192915050565b602081526000610fe7602083018461137d565b6000602082840312156113ce57600080fd5b5035919050565b80356001600160a01b03811681146113ec57600080fd5b919050565b6000806040838503121561140457600080fd5b61140d836113d5565b946020939093013593505050565b60008060006060848603121561143057600080fd5b611439846113d5565b9250611447602085016113d5565b929592945050506040919091013590565b634e487b7160e01b600052604160045260246000fd5b604051601f8201601f1916810167ffffffffffffffff8111828210171561149757611497611458565b604052919050565b600067ffffffffffffffff8211156114b9576114b9611458565b50601f01601f191660200190565b60006114da6114d58461149f565b61146e565b90508281528383830111156114ee57600080fd5b828260208301376000602084830101529392505050565b600082601f83011261151657600080fd5b610fe7838335602085016114c7565b6000806040838503121561153857600080fd5b823567ffffffffffffffff81111561154f57600080fd5b61155b85828601611505565b92505061156a602084016113d5565b90509250929050565b6000602082016020835280845180835260408501915060408160051b86010192506020860160005b828110156115e957603f1987860301845281518051604087526115c1604088018261137d565b6020928301516001600160a01b0316978301979097525093840193919091019060010161159b565b50929695505050505050565b6000806040838503121561160857600080fd5b611611836113d5565b9150602083013567ffffffffffffffff81111561162d57600080fd5b61163985828601611505565b9150509250929050565b60006020828403121561165557600080fd5b610fe7826113d5565b6000806040838503121561167157600080fd5b61167a836113d5565b91506020830135801515811461168f57600080fd5b809150509250929050565b600080600080608085870312156116b057600080fd5b6116b9856113d5565b93506116c7602086016113d5565b925060408501359150606085013567ffffffffffffffff8111156116ea57600080fd5b8501601f810187136116fb57600080fd5b61170a878235602084016114c7565b91505092959194509250565b60008060006060848603121561172b57600080fd5b505081359360208301359350604090920135919050565b6000806040838503121561175557600080fd5b61175e836113d5565b915061156a602084016113d5565b600181811c9082168061178057607f821691505b6020821081036106a857634e487b7160e01b600052602260045260246000fd5b6000600182016117c057634e487b7160e01b600052601160045260246000fd5b5060010190565b601f82111561047657806000526020600020601f840160051c810160208510156117ee5750805b601f840160051c820191505b81811015610f7257600081556001016117fa565b815167ffffffffffffffff81111561182857611828611458565b61183c81611836845461176c565b846117c7565b6020601f82116001811461187057600083156118585750848201515b600019600385901b1c1916600184901b178455610f72565b600084815260208120601f198516915b828110156118a05787850151825560209485019460019092019101611880565b50848210156118be5786840151600019600387901b60f8161c191681555b50505050600190811b01905550565b8381526060602082015260006118e6606083018561137d565b905060018060a01b0383166040830152949350505050565b634e487b7160e01b600052603260045260246000fd5b60006020828403121561192657600080fd5b815167ffffffffffffffff81111561193d57600080fd5b8201601f8101841361194e57600080fd5b805161195c6114d58261149f565b81815285602083850101111561197157600080fd5b611982826020830160208601611359565b95945050505050565b6000835161199d818460208801611359565b8351908301906119b1818360208801611359565b01949350505050565b6001600160a01b03858116825284166020820152604081018390526080606082018190526000906109659083018461137d565b6000602082840312156119ff57600080fd5b8151610fe78161132656fea2646970667358221220d6dd4ca2c42be6c86e279e0553e715cc8e4fbf444bbbf50d1dfa7749a0320ac364736f6c634300081c0033",
  "linkReferences": {},
  "deployedLinkReferences": {}
}